S01700005265616C2D54696D652D436C6F636B2E73726563B4
S11300000C942A000C9447000C9447000C9447006D
S11300100C94C10C0C94D80D0C9447000C94440C13
S11300200C94860C0C94900D0C94BA0B0C944B0D00
S11300300C9447000C9447000C9447000C94470020
S11300400C9447000C9447000C9447000C94470010
S11300500C94470011241FBECFE5D8E0DEBFCDBF0E
S113006010E0A0E6B0E0EEE6F0E202C005900D92EA
S1130070AC3FB107D9F711E0ACEFB0E001C01D927D
S1130080A634B107E1F70E946B000C9435100C9470
S113009000008091FE008F5F8093FE008091FE003F
S11300A08C3338F01092FE008091FD008F5F8093B6
S11300B0FD008091FD008C3338F01092FD0080919A
S11300C0FC008F5F8093FC008091FC00883110F06D
S11300D01092FC000895CF93DF93CDB7DEB7299734
S11300E00FB6F894DEBF0FBECDBF85E08C8380E4ED
S11300F088871E821D820E949B060E9401050E9421
S1130100480882E0BE016C5F7F4F0E944E0882E087
S113011069E470E00E94EC0A82E041E050E060E0B3
S113012070E00E94380980E690E00E944A0581E070
S113013060E00E942F058BE690E00E944A050F2E96
S1130140F4E9AF2EF0E0BF2EF02D0F2EF0E6EF2EE7
S1130150F0E0FF2EF02D0F2EFBE6CF2EF0E0DF2E89
S1130160F02D0F2EF5E78F2EF0E09F2EF02D0F2EA1
S1130170FEE76F2EF0E07F2EF02D0F2EF9E84F2EC4
S1130180F0E05F2EF02D1AE0CE0101960E9481036B
S11301908981843609F422C182E060E040E00E9453
S11301A0AA0682E061E040E00E94AA0682E062E0E2
S11301B040E00E94AA0682E063E040E00E94AA06B2
S11301C082E064E040E00E94AA0682E065E040E04C
S11301D00E94AA0681E060E00E94FD0282E060E0E5
S11301E041E00E94AA0682E061E041E00E94AA0682
S11301F082E062E041E00E94AA0682E063E041E01E
S11302000E94AA0682E064E041E00E94AA0682E01D
S113021065E041E00E94AA068981813309F0C2C0E9
S113022081E00E949D04C4010E944A0580E066E0CA
S11302300E942F058FEF92E5A7E081509040A040E7
S1130240E1F700C00000CE0102960E9481038A817A
S11302508436C9F30E943A048FE79AE1A6E08150FC
S11302609040A040E1F700C00000CE0103960E9438
S113027081038B818436C9F30E943A048FE79AE1A3
S1130280A6E081509040A040E1F700C000009B81AF
S113029090518A81880F282F220F220F820F890FF5
S11302A08093FC0081E00E949D04C3010E944A05E2
S11302B080E068E00E942F05CE0102960E9481032F
S11302C08A818436C9F30E943A048FE79AE1A6E052
S11302D081509040A040E1F700C00000CE01039699
S11302E00E9481038B818436C9F30E943A048FE70C
S11302F09AE1A6E081509040A040E1F700C00000E0
S11303009B8190518A81880F282F220F220F820F00
S1130310890F8093FD0081E00E949D04C2010E9428
S11303204A0580E068E00E942F05CE0102960E94F3
S113033081038A818436C9F30E943A048FE79AE1E3
S1130340A6E081509040A040E1F700C00000CE013B
S113035003960E9481038B818436C9F30E943A0478
S11303608FE79AE1A6E081509040A040E1F700C0F9
S113037000009B8190518A81880F282F220F220F21
S1130380820F890F8093FE0081E00E949D04C701C3
S11303900E944A0581E060E00E942F05C6010E9488
S11303A04A051CC081E00E949D04C5010E944A05C3
S11303B08FEF99E6A8E181509040A040E1F700C09A
S11303C0000081E00E949D04C7010E944A0581E06B
S11303D060E00E942F05C6010E944A0582E060E0A9
S11303E040E00E94AA0682E061E041E00E94AA0681
S11303F082E062E041E00E94AA0682E063E041E01C
S11304000E94AA0682E064E041E00E94AA0682E01B
S113041065E041E00E94AA068091FE00612F0E94DF
S1130420071081E0692F0E94FD02AFE6B7E1119742
S1130430F1F700C0000082E060E041E00E94AA06FB
S113044082E061E040E00E94AA0682E062E041E0CE
S11304500E94AA0682E063E041E00E94AA0682E0CC
S113046064E041E00E94AA0682E065E041E00E9467
S1130470AA068091FE00612F0E940710682F81E078
S11304800E94FD028FE697E10197F1F700C000009A
S113049082E060E041E00E94AA0682E061E041E07F
S11304A00E94AA0682E062E040E00E94AA0682E07E
S11304B063E041E00E94AA0682E064E041E00E9419
S11304C0AA0682E065E041E00E94AA068091FD0050
S11304D0612F0E94071081E0692F0E94FD02AFE6A0
S11304E0B7E11197F1F700C0000082E060E041E05D
S11304F00E94AA0682E061E041E00E94AA0682E02E
S113050062E041E00E94AA0682E063E040E00E94CB
S1130510AA0682E064E041E00E94AA0682E065E067
S113052041E00E94AA068091FD00612F0E940710FD
S1130530682F81E00E94FD028FE697E10197F1F7B1
S113054000C0000082E060E041E00E94AA0682E070
S113055061E041E00E94AA0682E062E041E00E947C
S1130560AA0682E063E041E00E94AA0682E064E019
S113057040E00E94AA0682E065E041E00E94AA06EB
S11305808091FC00612F0E94071081E0692F0E9476
S1130590FD02AFE6B7E11197F1F700C0000082E079
S11305A060E041E00E94AA0682E061E041E00E942E
S11305B0AA0682E062E041E00E94AA0682E063E0CB
S11305C041E00E94AA0682E064E041E00E94AA069B
S11305D082E065E040E00E94AA068091FC00612F61
S11305E00E940710682F81E00E94FD028FE697E1C8
S11305F00197F1F700C00000C7CD843008F051C066
S11306006A3008F050C0643071F1653050F46130E4
S1130610D9F06130A0F06230E1F0633009F045C0F8
S11306201DC0673079F1683028F4653009F166300F
S1130630E1F523C0683059F16930B9F52DC06FE395
S11306400E94940780E0089566E00E94940780E089
S113065008956BE50E94940780E008956FE40E947A
S1130660940780E0089566E60E94940780E0089568
S11306706DE60E94940780E008956DE70E94940758
S113068080E0089567E00E94940780E008956FE792
S11306900E94940780E008956FE60E94940780E02A
S11306A0089581E0089581E0089580E00895CF934E
S11306B0C82F8A3000F5482F417082E060E00E9424
S11306C0AA064C2F4695417082E061E00E94AA067A
S11306D04C2F46954695417082E062E00E94AA063E
S11306E0C695C695C6954C2F417082E063E00E9482
S11306F0AA0680E001C081E0CF9108950E949E0681
S113070008952F923F924F925F926F927F928F92B1
S11307109F92AF92BF92CF92DF92EF92FF920F938C
S11307201F93CF93DF93CDB7DEB727970FB6F89417
S1130730DEBF0FBECDBF1C011982009709F46DC046
S113074084E6F10180830F2EF9EAAF2EF0E0BF2E8C
S1130750F02D0F2EFDEA8F2EF0E09F2EF02D662453
S113076077243D822C827F826E8215019B828A824D
S1130770F5018081F401608140E00E94AA060F2EF9
S1130780F1EAEF2EF0E0FF2EF02D0F2EF5EACF2E3A
S1130790F0E0DF2EF02D00E010E0F60161916F0132
S11307A0F70181917F01AE014F5F5F4F0E944007C7
S11307B08981882381F48E819F81880F991F880FF6
S11307C0991F800F911F8F549F4FFC018081EC81F2
S11307D0FD81808305C00F5F1F4F04301105E9F6CA
S11307E00894A11CB11C0894811C911CF101808106
S11307F0EA81FB81608141E00E94AA06EC81FD81CF
S11308008081843661F40894611C711CF4E06F16D5
S1130810710409F0A8CF80E003C081E001C080E04A
S113082027960FB6F894DEBF0FBECDBFDF91CF91F0
S11308301F910F91FF90EF90DF90CF90BF90AF90FA
S11308409F908F907F906F905F904F903F902F90EC
S1130850089580E062E041E00E94AA0689EF90E0FA
S11308600197F1F700C0000080E062E040E00E94E0
S1130870AA060895CF93C82F80E060E041E00E946B
S1130880AA0680E061E040E00E94AA064C2F42954F
S11308904F70417080E064E00E94AA064C2F42959C
S11308A046954770417080E065E00E94AA064C2F8F
S11308B04295469546954370417080E066E00E94FB
S11308C0AA064C2F441F4427441F80E067E00E947F
S11308D0AA060E94290480E060E041E00E94AA0682
S11308E080E061E040E00E94AA064C2F417080E065
S11308F064E00E94AA064C2F4695417080E065E0B2
S11309000E94AA064C2F46954695417080E066E009
S11309100E94AA06C695C695C6954C2F417080E0E4
S113092067E00E94AA060E94290487EB9BE00197D6
S1130930F1F700C00000CF910895CF93C82F80E055
S113094060E040E00E94AA0680E061E040E00E948E
S1130950AA064C2F42954F70417080E064E00E94DB
S1130960AA064C2F429546954770417080E065E099
S11309700E94AA064C2F42954695469543704170B5
S113098080E066E00E94AA064C2F441F4427441FBF
S113099080E067E00E94AA060E94290480E060E0EB
S11309A040E00E94AA0680E061E040E00E94AA06BE
S11309B04C2F417080E064E00E94AA064C2F4695BB
S11309C0417080E065E00E94AA064C2F469546954A
S11309D0417080E066E00E94AA06C695C695C69559
S11309E04C2F417080E067E00E94AA060E9429040F
S11309F087EB9BE00197F1F700C0000080E0CF9106
S1130A0008958FE39FE10197F1F700C0000082E0B1
S1130A100E949D0488E20E949D0489EF90E0019762
S1130A20F1F700C000008CE00E949D0489EF90E083
S1130A300197F1F700C0000081E00E949D0483EF5C
S1130A4091E00197F1F700C0000086E00E949D0448
S1130A5085ED96E00197F1F700C00000089582301B
S1130A6098F4603198F4882319F0813089F406C031
S1130A70862F80580E949D0480E00895862F80541C
S1130A800E949D0480E0089581E0089581E0089526
S1130A9080E00895CF93DF93EC01009751F08881B3
S1130AA0882349F021960E943A0489918823D9F732
S1130AB003C081E001C080E0DF91CF910895DF920F
S1130AC0EF92FF920F931F93CF93DF93EC01F62ED7
S1130AD0E42ED22E009741F187E0861738F191E099
S1130AE0941730F18FE0821728F1862F880F880F32
S1130AF0880F805C0E949D048E01085F1F4F8991BE
S1130B000E943A0481EE94E00197F1F700C00000DE
S1130B10C017D107A1F78E2D6D2D0E942F058F2DA3
S1130B200E943A0480E007C081E005C081E003C070
S1130B3081E001C081E0DF91CF911F910F91FF907F
S1130B40EF90DF9008958F929F92AF92BF92FF92A1
S1130B500F931F93CF93DF93CDB7DEB72F970FB6C5
S1130B60F894DEBF0FBECDBF8B019C0161157105EA
S1130B708105910521F480E30E943A0433C0FF24E7
S1130B800F2EFAE08F2EF0E09F2EF0E0AF2EF0E073
S1130B90BF2EF02DC901B801A50194010E941310C4
S1130BA089019A01E1E0F0E0EC0FFD1FEF0DF11D6A
S1130BB06083F394011511052105310559F71F2DA3
S1130BC0115082F0E12FFF27E7FDF09581E090E0DE
S1130BD08C0F9D1FE80FF91F8081805D0E943A04ED
S1130BE0115082F72F960FB6F894DEBF0FBECDBF1B
S1130BF0DF91CF911F910F91FF90BF90AF909F9085
S1130C008F900895DF92EF92FF920F931F93CF93EB
S1130C10DF9383E50E943A0481E061E00E942F059E
S1130C2085E40E943A0480E062E00E942F0589E492
S1130C300E943A0481E063E00E942F0586E40E944A
S1130C403A048FE493EC0197F1F700C0000080E1CF
S1130C500E949D04DD24C4E0D0E0EE24E39480E00F
S1130C600E943A04DD2031F48D2F6C2F0E942F0551
S1130C70DE2C06C0DE25CF5F8D2F6C2F0E942F0542
S1130C8086E40E943A0487EA91E60197F1F700C0EE
S1130C9000000F2EFEEFFF2EF02DFC0E8D2F6F2D7A
S1130CA00E942F0580E00E943A041D2F1E256C2F00
S1130CB06150812F0E942F0589E40E943A0487EA3B
S1130CC091E60197F1F700C000000C2F0350812F2B
S1130CD0602F0E942F0580E00E943A048D2F6F2D13
S1130CE00E942F0585E40E943A0487EA91E6019761
S1130CF0F1F700C000006C2F64508D2F0E942F0567
S1130D0080E00E943A04812F602F0E942F0583E522
S1130D100E943A0487EA91E60197F1F700C00000C7
S1130D20C33108F49CCFDF91CF911F910F91FF90B5
S1130D30EF90DF9008950E949E0608958FEF8ABB7E
S1130D4087BB9FE394BB9FE091BB1BBA18BA15BA4B
S1130D5082BB0895843008F08BC0683008F08AC0E4
S1130D60423008F089C0813041F1813038F082305E
S1130D7009F441C0833009F081C05BC0413071F493
S1130D802BB381E090E0AC0102C0440F551F6A957B
S1130D90E2F7BA01622B6BBB80E008952BB381E0CC
S1130DA090E0AC0102C0440F551F6A95E2F7BA0106
S1130DB0609562236BBB80E00895413069F448B3C9
S1130DC021E030E0C90102C0880F991F6A95E2F75B
S1130DD0842B88BB80E0089528B381E090E0AC01C7
S1130DE002C0440F551F6A95E2F7BA016095622369
S1130DF068BB80E00895413069F445B321E030E0F8
S1130E00C90102C0880F991F6A95E2F7842B85BB3C
S1130E1080E0089525B381E090E0AC0102C0440F66
S1130E20551F6A95E2F7BA016095622365BB80E0BD
S1130E300895413071F422B381E090E0AC0102C026
S1130E40440F551F6A95E2F7BA01622B62BB80E03A
S1130E50089522B381E090E0AC0102C0440F551F15
S1130E606A95E2F7BA016095622362BB80E0089557
S1130E7081E0089581E0089581E0089580E0089577
S1130E80843008F049C0683008F048C04115510565
S1130E9009F446C08130B1F0813030F0823001F184
S1130EA0833009F03FC02AC089B390E09C0102C09E
S1130EB0359527956A95E2F7B9016170FA01608367
S1130EC080E0089586B390E09C0102C03595279593
S1130ED06A95E2F7B9016170FA01608380E00895D0
S1130EE083B390E09C0102C0359527956A95E2F79B
S1130EF0B9016170FA01608380E0089580B390E0E5
S1130F009C0102C0359527956A95E2F7B901617095
S1130F10FA01608380E0089581E0089581E00895F6
S1130F2081E0089580E008958430A8F4813051F080
S1130F30813028F0823049F0833079F409C06BBBEA
S1130F4080E0089568BB80E0089565BB80E0089563
S1130F5062BB80E0089581E0089580E008958430C4
S1130F6000F561157105F9F0813061F0813028F0E8
S1130F70823069F08330C9F40FC08BB3FB018083E6
S1130F8080E0089588B3FB01808380E0089585B3F1
S1130F90FB01808380E0089582B3FB01808380E0BD
S1130FA0089581E0089581E0089580E008958430F3
S1130FB0E8F4813061F0813028F0823069F08330C8
S1130FC0B9F40FC08BB380958BBB80E008958BB3CD
S1130FD0809588BB80E0089585B3809585BB80E0CB
S1130FE0089582B3809582BB80E0089581E00895DE
S1130FF080E00895843008F045C0683008F044C0AB
S11310008130B1F0813030F0823001F1833009F069
S11310103DC02AC02BB381E090E0AC0102C0440F74
S1131020551F6A95E2F7BA0162276BBB80E0089509
S113103028B381E090E0AC0102C0440F551F6A95CB
S1131040E2F7BA01622768BB80E0089525B381E026
S113105090E0AC0102C0440F551F6A95E2F7BA0153
S1131060622765BB80E0089522B381E090E0AC0183
S113107002C0440F551F6A95E2F7BA01622762BBAA
S113108080E0089581E0089581E0089580E0089566
S11310908FB780688FBF08951FBE0895FB0183300A
S11310A008F06CC08130E1F0813020F0823009F02A
S11310B067C049C093B78181892B83BF81818093A5
S11310C0070193B78281892B83BF83818CBF99B732
S11310D08481892B89BF80818093080180E00895F1
S11310E09EB58181892B8EBD8181809309019FB535
S11310F08281892B8FBD8581813069F42AB53BB506
S1131100838190E0822B932B9BBD8ABD8581809344
S11311100A0180E010C0823069F428B539B58381B2
S113112090E0822B932B99BD88BD858180930A0121
S113113080E001C081E029B79481922B99BF90810E
S113114090930B01089595B58181892B85BD81818B
S113115080930C0195B58281892B85BD93B58381DC
S1131160892B83BD99B78481892B89BF8081809322
S11311700D0182B5886082BD80E0089581E0089504
S113118080E00895833008F06FC0813039F18130F8
S113119020F0823009F06AC046C083E882BF83B77A
S11311A0887F83BF83B7836083BF6115710589F02E
S11311B093E86150704008B600FC04C0000008B613
S11311C000FEFCCF88B7816088BF92BF61157105AE
S11311D081F783B7887F83BF80E0089583E89FEF1A
S11311E09DBD8CBD8EB5887F8EBD8EB583608EBD52
S11311F06115710599F083E89FEF6150704008B65E
S113120002FC04C0000008B602FEFCCF28B724602C
S113121028BF9DBD8CBD6115710579F78EB5887F9A
S11312208EBD80E0089583E884BD85B5887F85BD43
S113123085B5836085BD6115710589F093E86150BA
S1131240704008B606FC04C0000008B606FEFCCFD9
S113125088B7806488BF94BD6115710581F785B531
S1131260887F85BD80E0089581E0089580E0089539
S1131270CF92DF92EF92FF920F931F93CF93DF935E
S1131280833008F07DC1813009F47EC0813020F0C4
S1131290823009F077C1FEC093B780910801892B91
S11312A083BF80910701882309F068C0CB01BA018C
S11312B00E94160F6B017C01E0910801F0E0EE0F33
S11312C0FF1FEE0FFF1FED53FF4F6081718182817D
S11312D0938120E030E04AE754E40E94A40F20E028
S11312E030E040E058E30E94A40F9B01AC01C70129
S11312F0B6010E94820EC62FD72F182F092F862FD2
S11313009D2FA12FB02FBC01CD0120E030E040E89B
S11313105BE30E94A40F0E94EA0EDC01CB016C0186
S113132090930F0180930E01A0E0B0E06627782F20
S1131330892F9A2F0E94160F9B01AC018C2F9D2F91
S1131340A12FB02FBC01CD010E941D0E9B01AC0149
S113135060E070E080E893E40E941D0E0E94EA0EB3
S113136060931001662339F00894C11CD11CD092FB
S11313700F01C0920E0162BF80E005C150931201BB
S11313804093110180E0FFC09EB580910B01892B31
S11313908EBD80910901882309F06CC0CB01BA018C
S11313A00E94160F6B017C01E0910B01F0E0EE0F3F
S11313B0FF1FEE0FFF1FED53FF4F6081718182818C
S11313C0938120E030E04AE754E40E94A40F20E037
S11313D030E040E058E30E94A40F9B01AC01C70138
S11313E0B6010E94820EC62FD72F182F092F862FE1
S11313F09D2FA12FB02FBC01CD0120E030E040E8AB
S113140057E30E94A40F0E94EA0EDC01CB016C0199
S113141090931A0180931901A0E0B0E07727662722
S11314200E94180F9B01AC018C2F9D2FA12FB02F70
S1131430BC01CD010E941D0E9B01AC0160E070E077
S113144080E897E40E941D0E0E94EA0EAB01BC01E5
S1131450CA0150931C0140931B01009739F0089472
S1131460C11CD11CD0921A01C09219019DBD8CBD22
S113147080E089C080910A01813031F450931401D5
S11314804093130180E07FC05093160140931501EF
S113149080E079C095B580910D01892B85BD80913F
S11314A00C01882309F066C0CB01BA010E94160F13
S11314B06B017C01E0910D01F0E0EE0FFF1FEE0FD8
S11314C0FF1FE552FF4F608171818281938120E08B
S11314D030E04AE754E40E94A40F20E030E040E00A
S11314E058E30E94A40F9B01AC01C701B6010E94FE
S11314F0820EC62FD72F182F092F862F9D2FA12F8D
S1131500B02FBC01CD0120E030E040E85BE30E9455
S1131510A40F0E94EA0EDC01CB016C0190931E0122
S113152080931D01782F662780E090E00E94160FBB
S11315309B01AC018C2F9D2FA12FB02FBC01CD019D
S11315400E941D0E9B01AC0160E070E080E893E412
S11315500E941D0E0E94EA0E60931F01662339F05B
S11315600894C11CD11CD0921E01C0921D0164BDFF
S113157080E009C0509318014093170180E003C034
S113158081E001C080E0DF91CF911F910F91FF9026
S1131590EF90DF90CF9008958330D0F4813059F0EC
S11315A0813018F08230B1F40DC083B7887F83BFD7
S11315B012BE80E008958EB5887F8EBD1DBC1CBC14
S11315C080E0089585B5887F85BD14BC80E00895CA
S11315D081E0089580E00895833070F56115710508
S11315E069F1813059F0813018F0823049F51EC01C
S11315F070933F0160933E0180E00895809109015A
S1131600882321F481E080930A0104C080910A01B7
S1131610813031F4709341016093400180E008957A
S1131620709343016093420180E0089570934501F3
S11316306093440180E0089581E0089581E0089575
S113164080E00895CF92DF92EF92FF920F931F9361
S1131650833008F042C08130C1F0813018F082300C
S1131660F1F528C093B780910801892B83BF50936B
S11316701201409311011093210100932001D09293
S11316802301C092220180E02BC09EB580910B0102
S1131690892B8EBD80910A01813031F4509314015D
S11316A04093130180E01CC0509316014093150130
S11316B080E016C095B580910D01892B85BD5093AE
S11316C01801409317011093250100932401D0922F
S11316D02701C092260180E003C081E001C080E0C0
S11316E01F910F91FF90EF90DF90CF90089583307A
S11316F0C8F561157105C1F141155105B9F1813084
S113170099F0813018F0823099F51EC070933F0132
S113171060933E0150930601409305013093040108
S11317202093030180E0089580910A01813031F40F
S1131730709341016093400180E0089570934301E8
S11317406093420180E008957093450160934401E1
S11317505093020140930101309300012093FF0054
S113176080E0089581E0089581E0089581E008957E
S113177080E008951F920F920FB60F9211242F93B9
S11317803F934F935F936F937F938F939F93AF9305
S1131790BF93EF93FF9380912801909129010196C3
S11317A0909329018093280120912A0130912B01E3
S11317B02F5F3F4F30932B0120932A0120912C015E
S11317C030912D012F5F3F4F30932D0120932C0139
S11317D020913E0130913F012115310581F0209186
S11317E01101309112018217930749F410922901D3
S11317F010922801E0913E01F0913F0109958091FA
S11318000501909106010097A1F020912A013091E1
S11318102B0180912001909121012817390749F467
S113182010922B0110922A01E0910501F09106011A
S1131830099580910301909104010097A1F02091F2
S11318402C0130912D0180912201909123012817C0
S1131850390749F410922D0110922C01E0910301F3
S1131860F09104010995FF91EF91BF91AF919F9180
S11318708F917F916F915F914F913F912F910F9035
S11318800FBE0F901F9018951F920F920FB60F92D4
S113189011242F933F934F935F936F937F938F9371
S11318A09F93AF93BF93EF93FF9380912E019091F9
S11318B02F01019690932F0180932E0120914001D6
S11318C0309141012115310581F0209113013091AE
S11318D014018217930749F410922F0110922E01DC
S11318E0E0914001F09141010995FF91EF91BF9181
S11318F0AF919F918F917F916F915F914F913F91A4
S11319002F910F900FBE0F901F9018951F920F925A
S11319100FB60F9211242F933F934F935F936F93BE
S11319207F938F939F93AF93BF93EF93FF93809194
S113193030019091310101969093310180933001EF
S113194020911501309116018217930749F41092E2
S1131950310110923001E0914201F0914301099567
S1131960FF91EF91BF91AF919F918F917F916F9173
S11319705F914F913F912F910F900FBE0F901F9049
S113198018951F920F920FB60F9211242F933F9325
S11319904F935F936F937F938F939F93AF93BF9373
S11319A0EF93FF93809132019091330101969093CC
S11319B033018093320120913401309135012F5F3E
S11319C03F4F3093350120933401209136013091FB
S11319D037012F5F3F4F3093370120933601209119
S11319E04401309145012115310581F02091170101
S11319F0309118018217930749F410923301109221
S1131A003201E0914401F091450109958091010171
S1131A10909102010097A1F0209134013091350199
S1131A2080912401909125012817390749F41092D7
S1131A30350110923401E0910101F0910201099500
S1131A408091FF00909100010097A1F02091360150
S1131A503091370180912601909127012817390789
S1131A6049F41092370110923601E091FF00F09191
S1131A7000010995FF91EF91BF91AF919F918F91D3
S1131A807F916F915F914F913F912F910F900FBE76
S1131A900F901F9018951F920F920FB60F9211245A
S1131AA02F933F934F935F936F937F938F939F9362
S1131AB0AF93BF93EF93FF938091380190913901D5
S1131AC00196909339018093380120913E01309121
S1131AD03F012115310599F020910E0130910F013C
S1131AE08217930761F410923901109238018091A2
S1131AF0100182BFE0913E01F0913F010995FF91F1
S1131B00EF91BF91AF919F918F917F916F915F9171
S1131B104F913F912F910F900FBE0F901F901895EA
S1131B201F920F920FB60F9211242F933F934F934E
S1131B305F936F937F938F939F93AF93BF93EF9331
S1131B40FF9380913A0190913B01019690933B0160
S1131B5080933A01209140013091410121153105D2
S1131B60B1F02091190130911A018217930779F489
S1131B7010923B0110923A0180911B0190911C013B
S1131B809DBD8CBDE0914001F09141010995FF910B
S1131B90EF91BF91AF919F918F917F916F915F91E1
S1131BA04F913F912F910F900FBE0F901F9018955A
S1131BB01F920F920FB60F9211242F933F934F93BE
S1131BC05F936F937F938F939F93AF93BF93EF93A1
S1131BD0FF9380913C0190913D01019690933D01CA
S1131BE080933C0120914401309145012115310538
S1131BF099F020911D0130911E018217930761F421
S1131C0010923D0110923C0180911F0184BDE0912E
S1131C104401F09145010995FF91EF91BF91AF9176
S1131C209F918F917F916F915F914F913F912F91F0
S1131C300F900FBE0F901F9018955058BB27AA27DE
S1131C400ED048C139D130F03ED120F031F49F3F5D
S1131C5011F41EF42EC10EF4E095E7FB24C1E92F24
S1131C604AD180F3BA17620773078407950718F0FF
S1131C7071F49EF562C10EF4E0950B2EBA2FA02DDF
S1131C800B01B90190010C01CA01A0011124FF2725
S1131C90591B99F0593F50F4503E68F11A16F04020
S1131CA0A22F232F342F4427585FF3CF469537951F
S1131CB02795A795F0405395C9F77EF41F16BA0BE4
S1131CC0620B730B840BBAF09150A1F0FF0FBB1F92
S1131CD0661F771F881FC2F70EC0BA0F621F731FDB
S1131CE0841F48F4879577956795B795F7959E3F38
S1131CF008F0B3CF9395880F08F09927EE0F9795C6
S1131D00879508950CD0E6C0DED040F0D5D030F0F1
S1131D1021F45F3F19F0C7C0511110C1CAC0EBD004
S1131D2098F39923C9F35523B1F3951B550BBB279E
S1131D30AA2762177307840738F09F5F5F4F220F4B
S1131D40331F441FAA1FA9F333D00E2E3AF0E0E844
S1131D5030D091505040E695001CCAF729D0FE2F90
S1131D6027D0660F771F881FBB1F26173707480722
S1131D70AB07B0E809F0BB0B802DBF01FF279358D8
S1131D805F4F2AF09E3F510568F08DC0D7C05F3F7A
S1131D90ECF3983EDCF3869577956795B795F795C0
S1131DA09F5FC9F7880F911D9695879597F90895B8
S1131DB0E1E0660F771F881FBB1F62177307840754
S1131DC0BA0720F0621B730B840BBA0BEE1F88F763
S1131DD0E095089598D088F09F5790F0B92F9927EF
S1131DE0B751A0F0D1F0660F771F881F991F1AF022
S1131DF0BA95C9F712C0B13081F09FD0B1E008950F
S1131E009CC0672F782F8827B85F39F0B93FCCF38F
S1131E10869577956795B395D9F73EF49095809517
S1131E20709561957F4F8F4F9F4F0895E89409C037
S1131E3097FB3EF490958095709561957F4F8F4FF9
S1131E409F4F9923A9F0F92F96E9BB279395F6950F
S1131E50879577956795B795F111F8CFFAF4BB0F8D
S1131E6011F460FF1BC06F5F7F4F8F4F9F4F16C0F1
S1131E70882311F096E911C0772321F09EE8872F7B
S1131E80762F05C0662371F096E8862F70E060E037
S1131E902AF09A95660F771F881FDAF7880F9695B0
S1131EA0879597F9089597F99F6780E870E060E057
S1131EB008959FEF80EC089500240A9416161706DF
S1131EC018060906089500240A9412161306140627
S1131ED005060895092E0394000C11F4882352F08A
S1131EE0BB0F40F4BF2B11F460FF04C06F5F7F4F42
S1131EF08F4F9F4F089557FD9058440F551F59F029
S1131F005F3F71F04795880F97FB991F61F09F3FE2
S1131F1079F087950895121613061406551FF2CF0B
S1131F204695F1DF08C0161617061806991FF1CF5B
S1131F3086957105610508940895E894BB27662782
S1131F407727CB0197F908950BD0C4CFB5DF28F0DC
S1131F50BADF18F0952309F0A6CFABCF1124EECF4A
S1131F60CADFA0F3959FD1F3950F50E0551F629FF0
S1131F70F001729FBB27F00DB11D639FAA27F00DDE
S1131F80B11DAA1F649F6627B00DA11D661F829F05
S1131F902227B00DA11D621F739FB00DA11D621FEA
S1131FA0839FA00D611D221F749F3327A00D611D07
S1131FB0231F849F600D211D822F762F6A2F1124E9
S1131FC09F5750408AF0E1F088234AF0EE0FFF1F3C
S1131FD0BB1F661F771F881F91505040A9F79E3F73
S1131FE0510570F060CFAACF5F3FECF3983EDCF36D
S1131FF0869577956795B795F795E7959F5FC1F7B0
S1132000FE2B880F911D9695879597F90895991B36
S113201079E004C0991F961708F0961B881F7A95DB
S1132020C9F780950895A1E21A2EAA1BBB1BFD01D6
S11320300DC0AA1FBB1FEE1FFF1FA217B307E407A3
S1132040F50720F0A21BB30BE40BF50B661F771FFB
S1132050881F991F1A9469F76095709580959095DB
S11120609B01AC01BD01CF010895F894FFCFA0
S113206E5072657373203120746F0053657420634E
S113207E6C6F636B00486F7572733D2D2D004D6947
S113208E6E757465733D2D2D005365636F6E6473A9
S113209E3D2D2D0057726F6E672043686F6963651F
S11320AE00030303030405060703030303000102ED
S11320BE033738392F3435362A3132332D23303D18
S11320CE2B0404000000000000803F0000004100CB
S11320DE00804200008043000080440000000000A5
S11320EE00803F00000041000000420000804200DA
S10F20FE00004300008043000080440008
S9030000FC
